:020000040800F2
:100000008019002011060008290300082B030008AE
:100010002F03000833030008370300080000000026
:100020000000000000000000000000003B0300088A
:100030003D030008000000003D410008B90500082C
:100040002B0600082B0600082B0600082B060008CC
:100050002B0600082B0600082B0600082B060008BC
:100060002B0600082B0600082B0600082B060008AC
:100070002B0600082B0600082B0600082B0600089C
:100080002B0600082B0600082B0600082B0600088C
:100090002B0600082B0600082B0600082B0600087C
:1000A0002B0600082B0600082B0600082B0600086C
:1000B0002B0600082B0600082B0600082B0600085C
:1000C0002B0600082B0600082B0600082B0600084C
:1000D0002B0600082B0600082B0600082B0600083C
:1000E0002B0600082B0600082B0600082B0600082C
:1000F0002B0600082B0600082B0600082B0600081C
:100100002B0600082B0600082B0600082B0600080B
:100110002B0600082B0600082B0600082B060008FB
:100120002B0600082B0600082B0600082B060008EB
:100130002B0600082B0600082B0600082B060008DB
:100140002B0600082B0600082B0600082B060008CB
:100150002B0600082B0600082B0600082B060008BB
:100160002B0600082B0600082B0600082B060008AB
:100170002B0600082B0600082B0600082B0600089B
:100180002B0600082B06000800F002F800F03CF8EF
:100190000AA090E8000C82448344AAF10107DA45E2
:1001A00001D100F031F8AFF2090EBAE80F0013F0F8
:1001B000010F18BFFB1A43F00103184774410000F8
:1001C00094410000103A24BF78C878C1FAD8520789
:1001D00024BF30C830C144BF04680C6070470000C1
:1001E0000023002400250026103A28BF78C1FBD840
:1001F000520728BF30C148BF0B6070471FB504F0DD
:1002000012F81FBD10B510BD03F0D7FF1146FFF760
:10021000F5FF00F05BF803F0F5FF03B4FFF7F2FF22
:1002200003BC03F0F9FF000000BF0100A0F10100D2
:10023000FBD17047002400F0A4F916E04FF4807160
:10024000334800F077FB3348FFF7EEFF4FF480713F
:100250002F4800F071FB2F48FFF7E6FF641C032CCA
:1002600003D10B210A2002F029FEE7E730B587B061
:10027000044600200690002500BFA82000F0ABF93E
:1002800003F034FF0546032000214022224BCDE934
:100290000132CDE90310082003461F4AFC320090CA
:1002A000AFF26F0002F027FF06AA1CA1082003F09E
:1002B00092F806AA3146082003F054F80A2003F009
:1002C0004AF9284603F016FF07B030BD10B501F01B
:1002D00037FA0A23134A0021AFF26F0002F0B4FE8E
:1002E00001F01BFB002010BD00F032F90FE04FF4CD
:1002F0000071074800F020FB0648FFF795FF4FF418
:100300000071034800F016FB0248FFF78DFFEEE78F
:100310000014024080969800880200206265657093
:100320000000000084010020704700BFFEE700BF0E
:10033000FEE700BFFEE700BFFEE770477047000022
:100340000CB50020019000907648006840F48030A1
:100350007449086000BF7348006800F400300090E2
:100360000198401C0190009818B90198B0F5A04F71
:10037000F1D16C48006800F4003010B10120009009
:1003800001E0002000900098012846D165484030E7
:10039000006840F08050634940310860624800685E
:1003A00040F44040604908605E48083000685D499C
:1003B000083108600846006840F4004008600846BC
:1003C000006840F4A05008605848091F0860081FE2
:1003D000006840F08070091F086000BF5148006845
:1003E00000F000700028F9D040F205705049086014
:1003F0004C480830006820F003004A490831086082
:100400000846006840F00200086000BF4548083018
:10041000006800F00C000828F8D10CBD10B5454864
:10042000006840F47000434908603E48006840F0AE
:1004300001003C49086000203A4908310860394809
:1004400000683D490840374908603C48091D08607C
:10045000081F006820F48020091F0860002031492F
:100460000C310860FFF76CFF4FF0006031498039B4
:10047000086010BD70B50020002202230024022174
:10048000284D08352D6805F00C0020B1042806D051
:10049000082834D107E02A4D2A4E356033E02A4D32
:1004A000284E35602FE01F4D2D1D2D68C5F380545B
:1004B0001C4D2D1D2D6805F03F0154B1224DB5FB9B
:1004C000F1F5184E361D3668C6F3881605FB06F2A0
:1004D00009E01B4DB5FBF1F5124E361D3668C6F32B
:1004E000881605FB06F20F4D2D1D2D68C5F301453D
:1004F0006D1C6B00B2FBF3F5124E356003E0104D3E
:10050000104E356000BF00BF064D08352D68C5F39D
:1005100003150E4E705D0B4D2D68C540094E3560BC
:1005200070BD0000003802400070004008544007D1
:10053000003C024088ED00E0FFFFF6FE1030002492
:100540000024F4000000002000127A0004000020C3
:100550001CB50121202000F00FFC4FF4007000902A
:1005600001208DF8040000208DF8060003208DF88E
:10057000050001208DF8070069460E4800F05EF97D
:100580001CBD1CB50121202000F0F6FB4FF480704B
:10059000009001208DF8040000208DF80600032053
:1005A0008DF8050001208DF807006946014800F02C
:1005B00045F91CBD0014024010B5002403F096FD5F
:1005C000044601F0D5F8204603F094FD01F0DCF973
:1005D00001F0DCF810BD70B504466FF0040000F0C7
:1005E00089F8E11704EB5171CD104FF47A7045434F
:1005F0004FF0E020006940F002004FF0E021086178
:1006000008464561006940F00100086170BD0000C6
:100610000948804709480047FEE7FEE7FEE7FEE796
:10062000FEE7FEE7FEE7FEE7FEE7FEE704480549D2
:10063000054A064B704700001D04000889010008A8
:1006400080130020801900208015002080150020D4
:1006500032490143324A1160704770B500210023CE
:100660000F22C4781CB32E4C246804F4E064C4F553
:10067000E064C4F30721C1F10404E3B20A41447801
:100680009C40E1B28478144021430C07210E254C94
:1006900005786155047804F01F050124AC40057805
:1006A0006D11AD0005F1E025C5F8004109E00478C1
:1006B00004F01F050124AC401B4D0678761145F867
:1006C000264070BD194A0A400243154B1B1F1A6091
:1006D000704739B1124A121D12680243104B1B1D9C
:1006E0001A6006E00E4A121D126882430C4B1B1D55
:1006F0001A607047042808D14FF0E021096941F0E1
:1007000004014FF0E022116107E04FF0E021096998
:1007100021F004014FF0E022116170470000FA055A
:100720000CED00E000E400E080E100E080FFFF1F4E
:1007300010B504469848844208D10121084600F0CB
:1007400086FB0021012000F082FB76E09348844282
:1007500008D10121022000F07AFB0021022000F0E4
:1007600076FB6AE08E48844208D10121042000F023
:100770006EFB0021042000F06AFB5EE089488442A1
:1007800008D10121082000F062FB0021082000F0C0
:100790005EFB52E08448844208D10121102000F021
:1007A00056FB0021102000F052FB46E07F488442B7
:1007B00008D10121202000F04AFB0021202000F078
:1007C00046FB3AE07A48844208D10121402000F0FB
:1007D0003EFB0021402000F03AFB2EE075488442A9
:1007E00008D10121802000F032FB0021802000F0A0
:1007F0002EFB22E07048844208D10121801500F0D0
:1008000026FB0021A01500F022FB16E06B48844275
:1008100008D10121401500F01AFB0021601500F0FD
:1008200016FB0AE06648844207D10121001500F05A
:100830000EFB0021201500F00AFB10BDF0B50A46A2
:1008400000210023002400BF3DE0012505FA01F34B
:10085000156805EA03049C4234D105684F0003265D
:10086000BE40B543056015794E00B5400668354376
:1008700005601579012D02D01579022D16D18568F4
:100880004F000326BE40B543856055794E00B54004
:10089000866835438560456801268E40B5434560CE
:1008A000456896798E40B6B235434560C5684F00BD
:1008B0000326BE40B543C560D5794E00B540C66835
:1008C0003543C560491C1029BFD3F0BD4FF6FF71F9
:1008D00001600021017141718171C171704708B5DA
:1008E0004FF480320092009A0A430092009AC2614B
:1008F000C161009AC261C2690092C269009208BDDA
:100900000246002013690B400BB1012000E00020DB
:1009100070470146086980B270470246002053695B
:100920000B400BB1012000E00020704701464869F0
:1009300080B2704701837047418370470AB10183D9
:1009400000E0418370474161704742694A4042611B
:100950007047F0B5002300244D07ED0E02FA05F3B1
:10096000CE1000F1200555F826504E07F70E0F2641
:10097000BE40B543CF1000F1200646F82750CE10F8
:1009800000F1200555F8265045EA0304CE1000F189
:10099000200545F82640F0BD00000240000402405A
:1009A00000080240000C0240001002400014024007
:1009B00000180240001C02400020024000240240B7
:1009C00000280240F948006840F00100F74908603B
:1009D0000020F64908310860F4480068F4490840EE
:1009E000F2490860F348091D0860F348EF49843173
:1009F0000860F0481038091D0860EC48006820F4D1
:100A00008020EA4908600020E8490C310860E74985
:100A10008C31086070470021E44A921C1170114625
:100A20000870704710B501460022002300204A11CB
:100A3000012A02D1DD4C236808E0022A03D1DB4CF5
:100A40007034236802E0D94C7434236801F01F022B
:100A5000012494401C400CB1012000E0002010BD96
:100A600038B5002000900024002500BF3120FFF79A
:100A7000D9FF05460098401C00900098B0F5A04FA3
:100A800001D0002DF2D03120FFF7CCFF08B10124B6
:100A900000E00024204638BD01460020C34A10680B
:100AA00020F0F80040EAC10010607047C3490860B8
:100AB00070470021BD4A703211701170012802D0B8
:100AC00004280AD104E00121B84A7032117005E00F
:100AD0000521B64A7032117000E000BF00BF7047B8
:100AE000B7490860704770B5049C41EA8215012639
:100AF000C6EB530645EA0645054345EA0465AB4E99
:100B0000361D356070BDAD4908667047820142EA06
:100B10000172A64B84331A607047A84988667047F3
:100B200010B5830143EA016343EA02739F4C8834A2
:100B3000236010BDA14908677047A049C864704789
:100B400002460020994B0833186820F0EC6042EA16
:100B500001031843954B0833186070470246002084
:100B6000924B0833186820F0784042EA010318439A
:100B70008E4B083318607047014600208B4A0832BC
:100B8000106820F003000843106070478748083061
:100B9000006800F00C00704701460020834A0832CC
:100BA000106820F0F00008431060704701460020F4
:100BB0007E4A0832106820F4E05008431060704705
:100BC00001460020794A0832106820F4604040EA6B
:100BD000C10010607047F0B50021002200240225FA
:100BE00000260223714F08373F6807F00C0121B13E
:100BF000042905D0082937D105E0724F076036E097
:100C0000714F076033E0694F3F1D3F68C7F380565F
:100C1000664F3F1D3F6807F03F036EB16A4FB7FB59
:100C2000F3F7DFF888C10CF1040CDCF800C0CCF35A
:100C3000881C07FB0CF40CE0624FB7FBF3F7DFF8FE
:100C40006CC10CF1040CDCF800C0CCF3881C07FB71
:100C50000CF4564F3F1D3F68C7F301477F1C7D00D2
:100C6000B4FBF5F7076002E0564F076000BF00BF16
:100C70004E4F08373F6807F0F0010909534F7A5C7F
:100C80000768D7404760494F08373F6807F4E0518D
:100C9000890A4E4F7A5C4768D7408760434F0837D0
:100CA0003F6807F46041490B484F7A5C4768D7407A
:100CB000C760F0BD002100F44072B2F5407F0AD158
:100CC0003A4A0832116821F4F811414A02401143AE
:100CD000364A08321160354A70321268C0F30B038D
:100CE0001A43324B70331A607047354944390860F3
:100CF000704733494039086070473649086070478B
:100D000001460020294A8C32106820F01F004A1E3C
:100D10001043264A8C321060704701460020234A57
:100D20008C32106820F4F8504A1E40EA02201F4A14
:100D30008C3210607047014600201C4A8C321068CB
:100D400020F4401008431060704701460020174A05
:100D50008C32106820F44000084310607047014650
:100D60000020124A8C32106820F440300843106092
:100D7000704719490860704739B10C4A303212681F
:100D800002430A4B30331A6006E0084A30321268D8
:100D90008243064B30331A607047F9B1034A34324C
:100DA00012680243014B34331A601CE000380240E1
:100DB000FFFFF6EA10300024003000200000474218
:100DC000800E47420024F40000127A001400002034
:100DD000FFFCFF0F5C014742E01147428F4A126857
:100DE00082438E4B1A60704739B18C4A121D1268CB
:100DF00002438A4B1B1D1A6006E0884A121D1268C6
:100E00008243864B1B1D1A60704739B1834A0C32EE
:100E100012680243814B0C331A6006E07F4A0C32A1
:100E2000126882437D4B0C331A60704739B17B4A9C
:100E3000103212680243794B10331A6006E0774A89
:100E4000103212688243754B10331A60704739B103
:100E5000724A243A12680243704B243B1A6006E03F
:100E60006E4A243A126882436C4B243B1A607047E6
:100E700039B16A4A203A12680243684B203B1A6033
:100E800006E0664A203A12688243644B203B1A60AF
:100E9000704739B1614A1C3A126802435F4B1C3BF0
:100EA0001A6006E05D4A1C3A126882435B4B1C3BA9
:100EB0001A60704739B1594A143A12680243574BC5
:100EC000143B1A6006E0554A143A12688243534BA9
:100ED000143B1A60704739B1504A103A1268024305
:100EE0004E4B103B1A6006E04C4A103A126882439F
:100EF0004A4B103B1A60704739B1484A1C3212689D
:100F00000243464B1C331A6006E0444A1C32126806
:100F10008243424B1C331A60704739B13F4A20323A
:100F2000126802433D4B20331A6006E03B4A2032F0
:100F300012688243394B20331A60704739B1374AFF
:100F4000243212680243354B24331A6006E0334AD8
:100F5000243212688243314B24331A60704739B10E
:100F60002E4A2C32126802432C4B2C331A6006E0B6
:100F70002A4A2C3212688243284B2C331A6070475D
:100F800039B1264A303212680243244B30331A609A
:100F900006E0224A303212688243204B30331A6016
:100FA0007047012808D11D493C31096841F008010A
:100FB0001A4A3C32116007E018493C31096821F0B7
:100FC0000801164A3C321160704739B1134A273A7A
:100FD00012780243114B273B1A7006E00F4A273A5A
:100FE000127882430D4B273B1A7070470B484030F4
:100FF000006840F080700949403108607047014640
:101000000020064A283A12680A400AB1012000E08E
:101010000020704701492639087070473438024073
:101020000146002002E0491C421CD0B20A78002A86
:10103000F9D170472DE9F04105460E4614460027C8
:10104000FA48007820B1112020700020BDE8F0811E
:101050002878012808D0022807D0032802D00428C5
:1010600004D100E000BF00BF00BF03E001202070FA
:101070000020EBE700BF03F039F8074668693060ED
:101080003068FFF7CDFF8046384603F033F8002084
:1010900020704046DAE72DE9F04105460E46144639
:1010A0000027E248007818B112202070BDE8F081D6
:1010B0002878012808D0022807D0032802D0042865
:1010C00004D100E000BF00BF00BF02E0012020709B
:1010D000ECE700BF03F00AF807466E61384603F0FC
:1010E00009F80020207000BFE0E7F0B5024612F8D2
:1010F000384F95785678383A0B4618680FE000F16B
:101100000B073F5DB74300F10B0C0CF8047067460A
:101110003F5D17B9877AAF4387721B1D1868002897
:10112000EDD1F0BDC249C34A1278885CC249095C5E
:10113000BF4A515C01EBC001C04A1170704710B545
:10114000002402F0D3FF0446B8480078F8B9BC4840
:101150000078E0B9FFF7E6FFBA48B849097850F8D7
:101160002100B9490860B5480078B8490978884233
:101170000DD0B5480068C06B401CB3490968C8630E
:10118000B3480068401CB249086002F0C8FF20461E
:1011900002F0B0FF10BD70B501460024AD4D2D68C2
:1011A000EC61AC4C246821620B4618681BE0A94C2A
:1011B000246894F8385000F10B04645DA54D2D6847
:1011C00095F839502C43A34D2D6895F8386000F1FF
:1011D0000B05AC55847A9F4D2D6895F83A502C43F9
:1011E00084721B1D18680028E1D19A4C246894F879
:1011F0003820914CA45C974D2D6895F83950AC433C
:101200008D4DAC542C46A45C44B9924C246894F89F
:101210003A50884C2478AC43864D2C7070BD2DE933
:10122000FF4F83B081460E461546DDF84080002012
:1012300000903060CA46DAF8004018E020780628AE
:1012400007D2DFE800F00604050307080AE009E01A
:1012500008E000BF00BF012088F80000002007B0B0
:10126000BDE8F08F00BF0AF1040ADAF80040002C54
:10127000E4D16E48007820B1022088F800000020F8
:10128000EDE76F48007820B10D2088F800000020BD
:10129000E5E702F02BFF00900020029083460190CA
:1012A000CA46DAF800405DE02078062849D2DFE837
:1012B00000F048172A03494A208960B12089401E5E
:1012C000208110C601200290002001C50BF1010011
:1012D0001FFA80FB03E0019840F0010001903CE020
:1012E000606858B1606801C50020606010C60120C8
:1012F00002900BF101001FFA80FB03E0019840F01F
:101300000200019029E06768F88AA8B13969081DD0
:101310003861086801C5B9683869884201D17868C0
:101320003861F88A401EF88210C6012002900BF145
:1013300001001FFA80FB03E0019840F004000190D7
:101340000BE000BF00BF009802F0D4FE0020306028
:10135000012088F80000584681E700BF0AF1040A1E
:10136000DAF80040002C9FD10298012809D1002012
:101370003060009802F0BEFE002088F80000584659
:101380006DE73448006890F83400019941F080011D
:1013900008433049096881F8340000202D49096864
:1013A00081F835002B490698096808634846FFF71D
:1013B000F2FE009802F09EFEFFF7C1FE02F096FEDC
:1013C00000902448006890F8350020B101281BD017
:1013D000022818D100E000BF1E480068C4693CB173
:1013E00010C6002030600BF101001FFA80FB09E0FD
:1013F00001201849096881F83500494615480068F8
:10140000FFF773FE06E000BF494612480068FFF789
:101410006CFE00BF00BF0F48006890F83500D8B1DF
:10142000012842D002283FD138E000003D000020D2
:10143000304200084100002042000020400000200F
:101440003E000020C8080020580000203F00002077
:101450002400002050000020207806280DD2DFE86C
:1014600000F00C0607030D0E002001C511E000BFBF
:10147000FE480068406A01C50BE000BF00BF00984D
:1014800002F038FE00203060012088F80000584645
:10149000E5E600BF002088F800000CE0002001C550
:1014A0000E2088F8000006E000BF002001C50A20D9
:1014B00088F8000000BF00BF0020EC49096881F8EF
:1014C0003400EA49096881F83500E8490968C861CB
:1014D000E64909680862E54909684862009802F02F
:1014E00009FE5846BBE67CB5002514E0694628464F
:1014F00001F0EFFF064666B9DD4850F8254044B1DB
:10150000012C06D0D4E9020100EB8100A06401980F
:10151000E064681CC5B23F2DE8D97CBD002400BF43
:1015200002E0C82002F0DEF8D24800780028F8D0A7
:10153000D14800686421B0FBF1F0CF49086008464B
:10154000006828B90020CD490870FF2002F003F898
:1015500000BF02F0CBFD0446C9480068C9490860D5
:101560000020C7490860204602F0C4FDC548006855
:10157000C1490968B0FBF1F0C0F16400BF490870CF
:1015800002F0C8FCFFF7AFFF642002F0ABF8E0E721
:1015900000B587B0032000218022BB4BCDE901328A
:1015A000CDE903104FF6FE703E23B84A0090AFF22B
:1015B000930001F0A0FD06AAB5A13E2001F00BFFAB
:1015C00007B000BD002400BF00BF02F08FFD04463D
:1015D000AB480068401CAA490860204602F08AFD1A
:1015E00002F097FCF1E700B587B0032000218022CC
:1015F000AB4BCDE90132CDE903104FF6FF703F232D
:10160000A84A0090AFF2430001F075FD06AAA6A11A
:101610003F2001F0E0FE07B000BD04E0002200F82A
:10162000012B4A1E91B20029F8D1704770B5F02104
:10163000A148FFF7F2FF002411E0601C85B204EB23
:1016400044009D4901EBC00305EB450001EBC006DA
:10165000002018705E6099A05861601C84B2092C4B
:10166000EBD304EB4400944901EBC0030020187055
:10167000586092A0586108469149086070BD70B5E5
:101680004FF484618F48FFF7C8FF4FF480717848AA
:10169000FFF7C3FF002413E0601CC5B204EB440055
:1016A00000EBC400874901EBC00305EB450000EBEC
:1016B000C50001EBC0065E6180A01865601CC4B265
:1016C0000B2CE9D304EB440000EBC4007D4901EB93
:1016D000C0030020586179A0186500207A4908608D
:1016E00078487A49086070BD0021794A117000205D
:1016F00004E00021774A1154411CC8B20828F8D3ED
:101700000021754A1170754A1170754A1160574A67
:10171000116070470020734908607349087073496D
:101720000870734908707349087073490860544918
:10173000086054490860504908604E490870704775
:1017400010B502F0DFFBFFF7E5FFFFF7CDFFFFF776
:1017500096FFFFF76BFF00F0B1FE01F0B4F9FFF761
:1017600042FFFFF715FF02F043FB02F0CFFB10BD75
:1017700060480078012808D15B480078FF2804D22F
:1017800059480078401C58490870704710B500242B
:1017900058480078012830D102F0A8FC044652488D
:1017A000007820B150480078401E4F4908704E48DC
:1017B0000078F8B94D480078E0B9FFF7B3FC2C4841
:1017C0004649097850F821004549086043480078A7
:1017D0004149097888420DD041480068C06B401CDF
:1017E0003F490968C86344480068401C4249086092
:1017F00002F09CFC204602F07DFC10BD10B50024D8
:101800003C480078012811D102F070FC04463648AB
:10181000007840B935480078FF2804D23348007872
:10182000401C32490870204602F064FC10BD10B51F
:1018300000243048007801286ED102F057FC04469D
:101840002A48007870B129480078401E274908705E
:101850000846007838B92448007828B9204602F0B4
:1018600049FC4BE055E050E04BE055E050000020D3
:10187000C80800203C000020340000203000002078
:101880004C00002038000020C8040020C4060020BE
:1018900075432F4F532D4949205374617400000044
:1018A000C8060020C408002075432F4F532D494916
:1018B0002049646C65000000880300203F000000A0
:1018C00028000020C80900205C00002054000020EF
:1018D00041000020420000203F0000204000002086
:1018E00058000020680000203D0000203E0000203D
:1018F0004B0000204A00002024000020FFF71FFCBE
:101900000AE0204602F0F6FB06E0204602F0F2FB79
:1019100002E0204602F0EEFB10BD10B5EA48007868
:1019200090B9FFF7FFFBE9480078E9490870E948FA
:10193000E649097850F82100E74908600846006840
:10194000E649086002F0D9FB10BD10B50024022062
:1019500001F0C8FE02F0CAFB04460020E04908601E
:10196000204602F0C7FB642001F0BCFE02F0BEFB83
:101970000446DB480068DB4908600120DA4908704A
:10198000204602F0B7FB10BD70B5002602F09AFBAE
:1019900002F0ACFB0646D5480068401CD3490860FD
:1019A000304602F0A7FBC8480078012853D1D04840
:1019B000007820B1012804D0022809D103E00125D4
:1019C0000BE0002509E001250120C949087004E069
:1019D00001250020C649087000BF00BF05B970BDD1
:1019E000C448046833E002F081FB0646206B50B324
:1019F000206B401E2063206B28BB94F8340000F05D
:101A0000370040B114F8340F00F0C80020700120F6
:101A10006070343C02E0002084F8350094F8340013
:101A200000F0080078B93834A078B3490978084341
:101A3000B14908702078B149085C6178084314F80E
:101A40003819AE4A50546469304602F053FB94F89A
:101A500036003F28C7D100BFC1E740F223107047CE
:101A6000704710B590F8382001F10B039B5C90F89B
:101A70003940A34301F10B04A35423469B5C23B9D3
:101A80008B7A90F83A40A3438B7210BD2DE9F04F4A
:101A900005460F4690469946A87A99490E5C05F18D
:101AA0000B00805D11F800B00BEBC60000F0FF0AE0
:101AB000884850F82A4000202434E0602760207CC9
:101AC00020EA0800207484F81190207C243C00F067
:101AD000080068B994F83A008749097808438649AC
:101AE00008708648805D94F839100843834988550A
:101AF00029462046FFF7B5FF206A20B12046216A1B
:101B0000FFF7F3FAE5615046BDE8F08F10B5734A70
:101B10001268D061714A126892F8383000F10B02F5
:101B2000D25C6E4B1B6893F839301A436B4B1B68C1
:101B300093F8384000F10B031A55827A674B1B6803
:101B400093F83A301A438272644A126892F8381055
:101B50006A4A525C614B1B6893F839309A43674B71
:101B60005A541A46525C42B95C4A126892F83A30AA
:101B7000614A12789A43604B1A7010BD01460022E8
:101B80008A72002005E0002301F10B021354421C6D
:101B9000D0B20828F7D3704705E011F8013B00F8F0
:101BA000013B531E9AB2002AF7D170472DE9F84F36
:101BB00005460F4690469946DDE90AAB00200090A5
:101BC00002F094FA00904F480468002C76D01C3440
:101BD00054F8080C4B490860009802F08BFA44F85E
:101BE0001C7CA576002020766076606144F818BCE5
:101BF00044F810AC44F8148C0C9824F80C0C24F81D
:101C00000A9C0020E077E810207705F00700E076D6
:101C1000217F01208840A077E17E01208840607705
:101C2000002020606060E060A0602062A0626062CE
:101C3000E0622063AFF27C3060631C3C002606E06B
:101C4000002104F1540040F82610701CC6B2002E8A
:101C5000F6D0204602F035FA204602F058F902F09C
:101C600045FA00901B4840F8254022480068606112
:101C70000020A0611F48006810B11E480068846100
:101C80001C4804603834A0781B49097808431A4975
:101C9000087020781949085C6178084314F83819ED
:101CA000164A505418480078401C1749087000988C
:101CB00002F020FA0020BDE8F88FFFE7009802F05C
:101CC00019FA4220F7E700004A00002040000020F7
:101CD0003F000020C80800205800002050000020CD
:101CE0004C000020340000203C0000206800002050
:101CF000600000205C000020410000204200002025
:101D000030420008540000204B0000202DE9F05F15
:101D100004460F4691461E464FF0000B20780528DA
:101D200004D0012030700020BDE8F09F09F0800A47
:101D3000BAF1000F04D029F080094FF0010801E04A
:101D40004FF000080020307002F0D0F98346B9F15E
:101D5000000F2CD0B9F1010F3BD0B9F1020F03D025
:101D6000B9F1030F46D111E0208900EA0705BD4211
:101D700006D1B8F1010F05D12089A843208101E0E7
:101D800070203070584602F0B5F93AE0208900EA38
:101D9000070535B1B8F1010F05D12089A84320818D
:101DA00001E070203070584602F0A4F929E0208943
:101DB00027EA0005BD4206D1B8F1010F05D12089FF
:101DC0002843208101E070203070584602F092F9DB
:101DD00017E0208927EA000535B1B8F1010F05D1D8
:101DE00020892843208101E070203070584602F09D
:101DF00081F906E0584602F07DF900256F20307029
:101E000000BF00BF28468FE72DE9F04106460D468A
:101E10000027FA48007820B1102028700020BDE883
:101E2000F08102F063F90746F548046884B1006860
:101E30004068F3490860052020702681002060601A
:101E4000F0A0E060384602F055F90020287004E068
:101E5000384602F04FF9722028702046DFE730B58F
:101E600001464A6808682AB9CC68606028B1002534
:101E7000456002E0106000B142608B6800259D6201
:101E800030BDF0B506460F46B46800202C346060C3
:101E90002780207A00F0DF00207200206072207A14
:101EA0002C3C88B93834A078D74909780843D649FA
:101EB00008702078D549085C6178084314F838190F
:101EC000D24A5054012500E000253046FFF7C7FFF5
:101ED0002846F0BD2DE9F0470446894615464FF0E7
:101EE000000AC648007820B10F2028702046BDE8BF
:101EF000F0872078052803D0012028702046F6E7D7
:101F000002F0F4F88246606808B1012700E000277B
:101F1000B9F1000F03D0B9F1010F3CD119E08FB92D
:101F2000B8A0E06000202070B54800686060002024
:101F30002081B3480460504602F0DCF8002028708D
:101F4000002605E0504602F0D5F8492028702646C4
:101F500028E0D4F8048005E000214046FFF791FF17
:101F6000D8F80080B8F1000FF6D1A6A0E0600020FC
:101F70002070A3480068606000202081A0480460B1
:101F8000504602F0B7F8012F01D1FFF7D8F8002032
:101F90002870002606E0504602F0ACF807202870B2
:101FA000264600BF00BF3046A1E72DE9F0410546B7
:101FB0000E46144600279148007820B11120207069
:101FC0000020BDE8F08102F091F807462878052846
:101FD00006D0384602F08EF8012020700020F0E78D
:101FE000E86830603068FFF71BF88046384602F03A
:101FF00081F8002020704046E3E72DE9F0410546D6
:102000000E46144600277D48007818B11220207033
:10201000BDE8F08102F06AF807462878052805D067
:10202000384602F067F801202070F1E7EE6038468C
:1020300002F060F80020207000BFE9E7F0B5144618
:10204000059E734F3F6897F8347047F02007DFF81C
:10205000C0C1DCF800C08CF834700027DFF8B0C1D4
:10206000DCF800C08CF83570694F3F683E63684FFC
:102070003F68B9620C828B74654F3F688F60476818
:102080000F6000274F60C860456805B16960416016
:102090005F4F3F6897F838205C4FBF5CDFF870C136
:1020A000DCF800C09CF839C027EA0C07DFF85CC1F7
:1020B0000CF802706746BF5C5FB9554F3F6897F8F0
:1020C0003AC0514F3F7827EA0C07DFF83CC18CF843
:1020D0000070F0BD2DE9F04F89B005460F469146DE
:1020E0009A46129E002002904448007828B10220AF
:1020F0003070002009B0BDE8F08F4648007818B174
:102100000D2030700020F5E72878052803D0012045
:1021100030700020EEE709F0800BBBF1000F04D017
:1021200009F07F094FF0010801E04FF0000801F0CD
:10213000DDFF0290B9F1000F4AD0B9F1010F78D05C
:10214000B9F1020F03D0B9F1030F71D120E0288952
:1021500000EA0704BC420FD1B8F1010F02D128896F
:10216000A04328812A4800688485029801F0C2FFB4
:10217000002030702046BDE74B463A4604A9284669
:10218000CDF800A0FFF75AFF029801F0B3FF78E006
:10219000288900EA07047CB1B8F1010F02D128892F
:1021A000A04328811A4800688485029801F0A2FFA4
:1021B0000020307020469DE74B463A4604A9284649
:1021C000CDF800A0FFF73AFF029801F093FF58E026
:1021D000288927EA0004BC421ED1B8F1010F02D1C0
:1021E0002889204328810A4800688485029801F0E4
:1021F00081FF0020307020467CE71AE03D0000207F
:102200002C0000203F000000410000204200002080
:10221000500000203E0000204B463A4604A92846C4
:10222000CDF800A0FFF70AFF029801F063FF28E055
:102230001FE0288927EA00047CB1B8F1010F02D120
:10224000288920432881B14800688485029801F0DC
:1022500051FF0020307020464CE74B463A4604A917
:102260002846CDF800A0FFF7E9FE029801F042FFF2
:1022700007E0029801F03EFF00246F2030702046F6
:1022800038E700BFFEF75BFF01F030FF02909F4888
:10229000006890F8350020B39C48006890F835003D
:1022A000039000209949096881F8350004A8FFF7D8
:1022B000D6FD00209549096881F83400029801F0A4
:1022C00019FF00240398012805D0022802D10E200E
:1022D000307003E000BF0A20307000BF00BF20460E
:1022E00008E78A480068848DB8F1010F1ED1B9F162
:1022F000000F0ED0B9F1010F0CD0B9F1020F03D0CD
:10230000B9F1030F0AD100E000BF2889A04328815A
:102310000BE000BF28892043288106E0029801F0E5
:10232000E9FE6F2030700020E4E600BF029801F063
:10233000E1FE002030702046DCE670B5002501F09B
:10234000D5FE054671480068848D284601F0D2FE0E
:10235000204670BD2DE9FC5F0446894692461E4624
:10236000002000902078052804D001203070002043
:10237000BDE8FC9F01F0BAFE0090BAF1000F03D057
:10238000BAF1010F0AD104E0208920EA0900208176
:102390000BE0208940EA0900208106E0009801F066
:1023A000A9FE712030700020E2E700BF4FF0000B63
:1023B000656855E0A87C40B3012838D0022802D0D7
:1023C000032844D111E02089298A00EA0107288ADC
:1023D000B84209D139462846FFF753FD8046B8F187
:1023E000010F01D14FF0010B38E02089298A00EA62
:1023F00001074FB139462846FFF743FD8046B8F143
:10240000010F01D14FF0010B28E0288A218920EA31
:102410000107288AB84209D139462846FFF731FD1D
:102420008046B8F1010F01D14FF0010B16E0288A68
:10243000218920EA01074FB139462846FFF721FDDF
:102440008046B8F1010F01D14FF0010B06E0009872
:1024500001F050FE6F203070002089E700BF2D682A
:10246000002DA7D1009801F045FEBBF1010F01D16D
:10247000FEF765FE01F03AFE009020890190009879
:1024800001F038FE00203070019871E72DE9F0412D
:1024900004460D4600272078052804D00120287026
:1024A0000020BDE8F08101F021FE0746268938466C
:1024B00001F020FE002028703046F2E72DE9F041BF
:1024C00050211348FFF7A9F800250EE0681C86B2DA
:1024D0000F4800EB051400EB061700202070676022
:1024E000AFF2E020E060681C85B2042DEED308480E
:1024F00000EB0514002020706060AFF2F820E0606F
:10250000034804490860BDE8F08100005000002045
:10251000780400202C0000202DE9F04106460D46ED
:102520004FF000083078022804D0012028700020E5
:10253000BDE8F08101F0DAFD80467468E08A78B188
:102540002169081D20610F68E08A401EE082A168B1
:102550002069884201D1606820610020287002E073
:102560001F2028700027404601F0C4FD3846DFE7F1
:102570002DE9F04106460F464FF00008F748007875
:1025800010B10020BDE8F08101F0B0FD8046F448B4
:102590000468006820B1F24800684068F0490860AB
:1025A000404601F0A7FDFCB101F0A0FD8046ED48DA
:1025B0000568D5B100680068EA490860404601F046
:1025C00099FD6E6006EB8700A860EE602E61AF8219
:1025D0000020E88202202070002020816560E2A0B7
:1025E00060612046FFF7CAFA08E0DD4800686060D5
:1025F000DB480460404601F07DFD00242046C1E731
:102600002DE9F0470446894615464FF0000A207828
:10261000022804D0012028702046BDE8F087CF486A
:10262000007818B10F2028702046F6E701F05EFD13
:102630008246A07A10B14FF0010801E04FF0000887
:10264000B9F1000F03D0B9F1010F49D121E0B8F180
:10265000000F17D1C4A060616668C248006830608E
:10266000C048066000202070BD48006860600020FF
:102670002081BB480460504601F03CFD00202870DA
:10268000002705E0504601F035FD49202870274617
:102690002DE005E00023042219462046FFF7F6F955
:1026A000A07A0028F6D1B0A060616668AD480068E5
:1026B0003060AC48066000202070A9480068606067
:1026C00000202081A6480460504601F013FDB8F1B7
:1026D000010F01D1FEF733FD00202870002706E02E
:1026E000504601F007FD07202870274600BF00BFB5
:1026F000384692E770B50546002601F0F7FC06461D
:102700006C686068E060606820610020E0823046AC
:1027100001F0F0FC002070BD2DE9F0470746884627
:1027200015464FF000093878022804D0012028709F
:102730000020BDE8F0878948007818B10220287091
:102740000020F6E78948007818B10D202870002095
:10275000EFE701F0CBFC81467C68E08A98B1216903
:10276000081D20610E68E08A401EE082A168206991
:10277000884201D160682061484601F0BBFC00201E
:1027800028703046D5E77A48006890F8340040F069
:1027900004007749096881F8340000207449096809
:1027A00081F8350072480068C0F830803846FFF77D
:1027B000ADF9484601F09EFCFEF7C1FC01F096FC25
:1027C00081466B48006890F8350020B101280DD093
:1027D00002280AD105E066480068466A0020287091
:1027E0000DE000260E20287009E000BF3946604841
:1027F0000068FFF736F900260A20287000BF00BFE6
:1028000000205B49096881F834005949096881F85A
:10281000350057490968C861554909680862544933
:1028200009684862484601F065FC304681E72DE9B9
:10283000F04104460F4615464FF000082078022864
:1028400004D0012028700020BDE8F08101F04EFC8A
:102850008046A07A20B300267FB1012F0CD107E07B
:102860000223042200212046FFF710F9701CC6B293
:10287000A07A0028F4D109E000BF0223042200213D
:102880002046FFF703F9701CC6B200BF00BF4046E8
:1028900001F030FCFEF753FC0E2028703046D3E7E1
:1028A000404601F027FC0020287000BFCCE72DE94E
:1028B000F04105460E4600272878022802D0012064
:1028C000BDE8F08101F012FC0746A87A60B1002350
:1028D000042231462846FFF7D9F8384601F00AFCB1
:1028E000FEF72DFC0020EBE76C68E08AA18A8842A5
:1028F00004DB384601F0FEFB1E20E1E7E168081D1D
:10290000E0600E60E08A401CE082D4E90210884258
:1029100001D16068E060384601F0ECFB0020CFE7B1
:102920002DE9F04105460E4600272878022802D0FE
:102930000120BDE8F08101F0D9FB0746A87AC8B1B3
:102940000023042231462846FFF7A0F8384601F05C
:10295000D1FBFEF7F4FB0020EBE700003D00002078
:1029600028000020640000203F0000003E000020FE
:10297000500000206C68E08AA18A884204DB384657
:1029800001F0B8FB1E20D4E761682069884201D1BC
:10299000A06820612069001F206120690660E08A2C
:1029A000401CE082384601F0A5FB0020C1E72DE97C
:1029B000F04105460F4616464FF0000828780228D9
:1029C00002D00120BDE8F08101F090FB8046A87A9A
:1029D000E8B106F0010050B105E0002304223946B9
:1029E0002846FFF753F8A87A0028F6D105E000231F
:1029F000042239462846FFF749F8404601F07AFBA1
:102A000006F0040008B9FEF79AFB0020DAE76C68CC
:102A1000E08AA18A884204DB404601F06BFB1E205D
:102A2000D0E706F0020058B161682069884201D100
:102A3000A06820612069001F20612069076009E00B
:102A4000E168081DE0600F60D4E90210884201D1FE
:102A50006068E060E08A401CE082404601F04AFB8A
:102A60000020AFE72DE9F04705460C464FF0000A7D
:102A70002878022802D00120BDE8F08701F036FB5B
:102A80008246A87A207405F10B0804F10809002792
:102A900005E018F8010B09F8010B781CC7B2082FE4
:102AA000F7D36E68F08A18B130690068206001E0E1
:102AB00000202060F08AA080B08AE080504601F0BB
:102AC00019FB0020D8E72DE9F04178211048FEF7E6
:102AD000A4FD00240DE0601C86B204EB44000C4908
:102AE00001EBC00506EB460001EBC0072F60601C40
:102AF00084B2042CEFD304EB4400054901EBC0057C
:102B000000202860084603490860BDE8F081000005
:102B1000E80D00206400002070B5044600262078EF
:102B2000032801D0002070BD01F0E0FA0646258997
:102B300015B12089401E2081304601F0DBFA28467D
:102B4000F1E770B505460026D748007808B10020A7
:102B500070BD01F0CBFA0646D4480468006820B185
:102B6000D24800684068D1490860304601F0C2FA96
:102B70004CB103202070258100206060CCA06061F2
:102B80002046FEF7FBFF2046E2E72DE9F04704462A
:102B9000884615464FF000092078032804D001200C
:102BA00028702046BDE8F087BF48007818B10F2094
:102BB00028702046F6E701F099FA8146A07A08B11C
:102BC000012700E00027B8F1000F03D0B8F1010F92
:102BD0003AD119E08FB9B6A0606100202070B348E7
:102BE0000068606000202081B0480460484601F021
:102BF00081FA00202870002605E0484601F07AFAA4
:102C000049202870264626E005E0002301221946C7
:102C10002046FEF73BFFA07A0028F6D1A4A0606111
:102C200000202070A14800686060002020819F483B
:102C30000460484601F05EFA012F01D1FEF77FFAE9
:102C400000202870002606E0484601F053FA0720CD
:102C50002870264600BF00BF3046A3E72DE9F041AB
:102C600005460E46144600272878032803D0012085
:102C70002070BDE8F0818C48007810B102202070EF
:102C8000F7E78C48007810B10D202070F1E701F0D3
:102C90002DFA0746288940B12889401E28813846E8
:102CA00001F028FA00202070E3E78348006890F8DC
:102CB000340040F001008049096881F834000020A8
:102CC0007D49096881F835007B480068066328461D
:102CD000FEF71CFF384601F00DFAFEF730FA01F05E
:102CE00005FA07467448006890F8350020B10128BD
:102CF00009D0022806D102E0002020700BE00E204F
:102D0000207008E000BF29466B480068FEF7A9FE66
:102D10000A20207000BF00BF00206749096881F8C1
:102D200034006549096881F8350063490968C8615C
:102D3000614909680862384601F0DCF900BF98E78C
:102D40002DE9F04104460F4615464FF00008207863
:102D5000032804D0012028700020BDE8F08101F094
:102D6000C5F98046A07A20B300267FB1012F0CD18F
:102D700007E00223012200212046FEF787FE701C97
:102D8000C6B2A07A0028F4D109E000BF02230122D4
:102D900000212046FEF77AFE701CC6B200BF00BFBD
:102DA000404601F0A7F9FEF7CAF90E202870304618
:102DB000D3E7404601F09EF90020287000BFCCE721
:102DC00070B5044600252078032801D0012070BD8D
:102DD00001F08CF90546A07A60B100230122194662
:102DE0002046FEF753FE284601F084F9FEF7A7F9C6
:102DF0000020ECE720894FF6FF71884207D2208936
:102E0000401C2081284601F075F90020DFE72846A4
:102E100001F070F93320DAE72DE9F04704460D465A
:102E20004FF000092078032802D00120BDE8F08788
:102E300001F05CF98146A07AA87204F10B0705F154
:102E40000208002605E017F8010B08F8010B701CBA
:102E5000C6B2082EF7D320892880484601F04AF9E7
:102E60000020E3E72DE9F04104460E461546002711
:102E70002078032803D001202870BDE8F08101F0FC
:102E800035F9074600202870208908B1268105E021
:102E9000A07A08B9268101E049202870384601F05F
:102EA00029F900BFE9E700003D00002028000020CC
:102EB0003F0000003E000020500000202DE9F34FAD
:102EC00085B088460020019001F010F90190FE487D
:102ED00050F8280030B1019801F00CF9282007B013
:102EE000BDE8F08F0598FF2804D1F848006890F8F5
:102EF00036000590F449059851F8205025B90198FD
:102F000001F0F8F82920EAE7012D04D1019801F039
:102F1000F1F84320E3E74FEAE80708F007000390E1
:102F20000120B84000F0FF0901210398814001F021
:102F3000FF0A0021E44A059842F82010104640F8A4
:102F4000285095F8386095F83A00029095F839B015
:102F5000DF48805D00EA0B00D0B1DD48805D20EAEB
:102F60000B00DB4988550846805D28B9D9480078B0
:102F700002998843D7490870D648007840EA09008A
:102F8000D4490870D248C05D40EA0A00D049C8550B
:102F9000EC69D4B104F10B00805D20EA0B0004F170
:102FA0000B0188550846805D18B9A07A02998843BC
:102FB000A072A07A40EA0900A07204F10B00C05D83
:102FC00040EA0A0004F10B01C855286A30B3286AA8
:102FD0000490049804681FE004F10B00805D20EA6F
:102FE0000B0004F10B0188550846805D18B9A07AE2
:102FF00002998843A072A07A40EA0900A07204F105
:103000000B00C05D40EA0A0004F10B01C8550498AA
:10301000001D049004980468002CDDD185F83680EA
:1030200085F83870039885F8370085F83A9085F868
:1030300039A0019801F05EF8A7480078012801D175
:10304000FEF77DF800204AE72DE9FE4F06460F46C1
:1030500090461C464FF0000901F048F881469F4811
:10306000007828B1484601F045F83C20BDE8FE8FC5
:10307000954850F8240060BB0120934941F8240092
:10308000484601F037F8002342463946304600F002
:1030900042FF8246002000900190034602465146BE
:1030A00002902046FEF782FD054635B98A48007831
:1030B00001280CD1FEF743F809E001F017F881462A
:1030C0000020814941F82400484601F013F82846C1
:1030D000CCE7484601F00EF82820C7E702F00103CC
:1030E00043B102F002032BB102E0491E002308C0E5
:1030F0000029FAD170472DE9F04F85B081468A4604
:1031000093461C46DDE90F78129D0020039000F0E5
:10311000EDFF03907148007830B1039800F0EAFFAA
:103120003C2005B0BDE8F08F674850F8240088BB0C
:103130000120654941F82400039800F0DBFF2A468E
:1031400041463846FFF7CAFF2B465A465146484685
:1031500000F0E1FE04901198CDE9008002953A4616
:1031600020460E9B0499FEF721FD064636B95A48C3
:10317000007801280CD1FDF7E2FF09E000F0B6FF6E
:1031800003900020504941F82400039800F0B2FF5A
:103190003046C6E7FFE7039800F0ACFF2820C0E701
:1031A0002DE9F041054600274C48007810B1402039
:1031B000BDE8F0813F2D01D13E20F9E700F096FFF8
:1031C0000746FF2D03D14148006890F836503E482D
:1031D00050F8254024B9384600F08CFF4320E7E73B
:1031E000012C04D1384600F085FF3D20E0E714F8BB
:1031F000380F3749085C617888432178344A505445
:1032000014F838091146085C30B994F83A1031487E
:10321000007888432F490870E06918B12046E169B9
:10322000FEF71FFC206A18B12046216AFDF75DFFFA
:10323000A66A16B13046FEF712FE0020206384F81D
:10324000340084F8350026480078FF2804D224484A
:103250000078401C22490870384600F04BFFFEF70A
:10326000FFFB00F043FF07461D48007820B11C48D3
:103270000078401E1A490870204600F049FE19489F
:103280000078401E1749087000200F4941F82500BA
:10329000A06930B9002061698861134960690860DC
:1032A00005E0D4E905014861D4E9051088610F48BB
:1032B000006860610D4804600DA02065384600F08C
:1032C00019FF0548007815E0C808002050000020CC
:1032D00042000020410000204A0000203D00002064
:1032E0003E0000204B0000205C0000205400002025
:1032F0003F000000012801D1FDF721FF002057E722
:103300002DE9F041044600273F2C02D13E20BDE8C4
:10331000F081FF2C0BD100F0E9FE0746EB48006876
:1033200090F83B60384600F0E5FE3046EFE700F0ED
:10333000DDFE0746E64850F8245025B9384600F02F
:10334000D9FE4320E3E7012D04D1384600F0D2FE38
:103350003D20DCE73F2085F83B00384600F0CAFE00
:103360000020D4E72DE9F04706460F4614464FF0FB
:103370000008D848007820B1112020700020BDE856
:10338000F08700F0B3FE8046FF2E03D1CF480068DF
:1033900090F83660CE4850F8265035B9404600F0D7
:1033A000A9FE432020700020E9E7012D06D1404608
:1033B00000F0A0FE432020700020E0E7286D386078
:1033C0003868FDF72DFE8146404600F093FE002050
:1033D00020704846D3E72DE9F04106460F461446D3
:1033E0004FF00008BB48007818B112202070BDE8EB
:1033F000F08100F07BFE8046FF2E03D1B3480068C9
:1034000090F83660B24850F826502DB9404600F08A
:1034100071FE43202070EAE7012D05D1404600F0FF
:1034200069FE43202070E2E72F65404600F062FE0F
:103430000020207000BFDAE770B50546002600F0D6
:1034400055FE0646A24850F8254024B9304600F003
:1034500051FE462070BD012C04D1304600F04AFEDA
:103460004320F7E794F8340000F0080060B314F844
:10347000340F00F0F700207014F83409F8B9206B0D
:10348000C8B93834A078944909780843924908703B
:1034900020789249085C6178084314F838198F4AFB
:1034A0005054304600F026FE8D480078012809D19E
:1034B000FDF745FE06E0304600F01CFE02E0304617
:1034C00000F018FE0020C5E7304600F013FE44204F
:1034D000C0E72DE9F04707460D464FF0000A0020EF
:1034E0002860686000F002FE8246FF2F03D1774813
:1034F000006890F83670764850F827402CB950464E
:1035000000F0F8FD4320BDE8F087012C04D15046BF
:1035100000F0F0FD4320F6E7207C00F0010020B928
:10352000504600F0E7FD4520EDE70026D4F80C906A
:10353000D4F80880504600F0DDFD00E0761C58F815
:10354000041B0029FAD0B0002860A9EB0600800017
:1035500068600020D7E72DE9F04105464FF00008EC
:1035600000F0C4FD8046FF2D05D15848006890F852
:103570003650012608E05548006890F83600A84209
:1035800001D1012600E00026514850F825402CB911
:10359000404600F0AFFD4820BDE8F081012C04D189
:1035A000404600F0A7FD4320F6E794F838704B48FA
:1035B000C05D94F8391088434849C8550846C05D35
:1035C00030B994F83A10444800788843424908706A
:1035D00094F8340040F0080084F83400404600F0CD
:1035E00089FD012E01D1FDF7AAFD0020D4E72DE9C8
:1035F000F04105460E46002700F078FD0746FF2DF6
:1036000003D13248006890F83650314850F82540D0
:103610002CB9384600F06EFD2920BDE8F081012C60
:1036200004D1384600F066FD4320F6E758222146D3
:103630003046FEF7B1FA384600F05CFD0020ECE7BA
:103640002DE9F04704460E4617464FF0000900F0FA
:103650004DFD8146FF2C02D11C48056802E01C4844
:1036600050F8245005F1540050F82680484600F0E8
:1036700041FD002038704046BDE8F0872DE9F04755
:1036800004460E46174698464FF0000900F02EFDFE
:103690008146FF2C02D10D48056802E00C4850F825
:1036A000245005F1540040F82670484600F022FDF1
:1036B000002088F80000BDE8F08710B503480068D6
:1036C00000F00FFDFF20FFF76BFD10BD5000002044
:1036D000C80800203D0000204100002042000020DA
:1036E0004A00002070B5054600266348007800B106
:1036F00070BD6248007800B1FAE71DB300F0F6FC37
:1037000006465F48006890F838405E48005D5C49B6
:10371000096891F8391088435A4908550846005DF0
:1037200040B95748006890F83A10574800788843E5
:1037300055490870524800680563304600F0DAFCCD
:10374000FDF7FDFC00BFD3E72DE9F04105460E462D
:1037500017461C464848007810B15520BDE8F08156
:103760004648007808B13220F8E74FF47A70604399
:103770004FF47A71B0FBF1F14FF461606843C6EB2E
:10378000061200EB8200384400EB4002C2EBC0108E
:1037900001EBC0084046FFF7A5FF0020DEE770B54B
:1037A000054600263F2D01D32A2070BD00F09EFC67
:1037B0000646364850F8254024B9304600F09AFCB9
:1037C0004320F2E7012C04D1304600F093FC432063
:1037D000EBE7206B20B9304600F08CFC5020E4E78A
:1037E0000020206394F8340000F0370040B114F852
:1037F000340F20F03700207001206070343C02E06C
:10380000002084F8350094F8340000F00800A8B9CE
:103810003834A0781C49097808431B49087020787F
:103820001849085C6178084314F83819154A50544F
:10383000304600F05FFCFDF782FC02E0304600F00D
:1038400059FC0020B1E770B5002500F04FFC05469B
:103850000F480468284600F04DFC204670BD70B546
:103860000446002500F042FC05460948046028464D
:1038700000F040FC70BD00003D0000203E00002034
:10388000500000204200002041000020C808002015
:1038900068000020FC48006808B900207047FA481A
:1038A0000168F94AC86810600020C8600861F748DC
:1038B0000088401CF54A1080F5480088401EF44AF4
:1038C00010800846EAE72DE9F05F06460F4690466D
:1038D0009946DDE90AAB0C9DEE48007820B18B20BB
:1038E00028700020BDE8F09FFDF788FFFFF7D2FFAA
:1038F00004462CB9FDF79BFF862028700020F1E7D5
:10390000012084F82500A661E76184F82480C4F8CA
:103910000490C4F808A0C4F820B0FDF788FF002088
:1039200028702046DEE7002180F8251080F824105A
:10393000C161416141608160D7A1016200210161E3
:10394000D1490968C160D0490860D0490988491E39
:10395000CE4A1180CE490988491CCD4A1180704752
:1039600030B5057D05F00704CC4D05EBC4031D689B
:10397000854205D1C168196039B100250D6104E0A7
:103980000169C268CA6002B11161012580F8255041
:103990000025C56005619D886D1E9D8030BD70B598
:1039A00005460C462878642803D089202070002022
:1039B00070BDB848007818B18B2020700020F7E760
:1039C000FDF71CFF95F82500D8B101280FD002287B
:1039D0000ED003281BD12846FFF7C2FF2846FFF769
:1039E000A2FFFDF724FF002020700120E0E700BFC8
:1039F0002846FFF798FFFDF71AFF002020700120EE
:103A0000D6E7FDF714FF872020700020D0E7FDF7F0
:103A10000EFF8D2020700020CAE72DE9F0410546F9
:103A20000E4614462878642804D08920207000208F
:103A3000BDE8F0819748007818B11120207000206F
:103A4000F6E7FDF7DBFE95F8250098B1012804D0D4
:103A5000022803D0032813D100BF00BF286A3060BA
:103A60003068FDF7DDFA0746FDF7E1FE0020207023
:103A70003846DDE7FDF7DBFE872020700020D7E722
:103A8000FDF7D5FE8D2020700020D1E770B50446EB
:103A90000D462078642803D089202870002070BD4E
:103AA0007C48007818B18B2028700020F7E7FDF7DC
:103AB000A5FE94F8250070B301280DD0022825D06A
:103AC00003282FD1764960690968461AFDF7AFFED1
:103AD000002028703046E2E794F8240001280CD03A
:103AE000022809D1A06908B9E66900E0A669FDF7D6
:103AF0009EFE0020287006E000BFA669FDF797FE35
:103B00000020287000BF00BF3046C8E7FDF78FFED9
:103B100000202870C3E7FFE7FDF789FE87202870A3
:103B20000020BCE7FDF783FE8D2028700020B6E75B
:103B300070B505460C462878642803D0892020708B
:103B4000002070BD5348007818B18B2020700020F1
:103B5000F7E7FDF753FE95F8256036B1012E05D045
:103B6000022E04D0032E06D102E000BF00BF00BF2A
:103B70000020207002E08D20207000BF00BFFDF704
:103B800056FE3046DDE770B50B46032580F825501C
:103B9000012B05D1424EC5693668354445610CE0BC
:103BA00085692DB93E4EC56936683544456104E0E6
:103BB0003B4E8569366835444561057D05F007044F
:103BC000364D05EBC4010D682DB908600025C560B0
:103BD00001258D8006E00A680860C26010618D884A
:103BE0006D1C8D800025056170BD70B505460C46C5
:103BF0002878642803D089202070002070BD2548D3
:103C0000007818B18B2020700020F7E7FDF7F6FD53
:103C100095F82500E8B1012810D002280FD003281C
:103C20001DD12846FFF79CFE00212846FFF7ABFF79
:103C3000FDF7FDFD002020700120DFE700BF00211F
:103C40002846FFF7A0FFFDF7F2FD002020700120BD
:103C5000D4E7FDF7ECFD872020700020CEE7FDF7CC
:103C6000E6FD8D2020700020C8E72DE9F0410546D3
:103C70000F4690461C462878642813D0892020706F
:103C80000020BDE8F08100007C0000206E000020D4
:103C90006C0000203D0000203F000000E0120020EA
:103CA000700000207D48007818B18B202070002023
:103CB000E7E7FDF7A3FD95F82500002832D001289D
:103CC0002AD0022827D0032832D12846FFF748FE01
:103CD00000202070B7B1032F02D0042F13D108E0C9
:103CE0006E681EB12846A968B04701E08F20207099
:103CF0000CE06E681EB141462846B04701E08F20B7
:103D0000207003E002E08420207000BF00BFFDF7B8
:103D10008EFD0120B5E700BFFDF789FD8E202070E4
:103D20000120AEE7FDF783FD872020700020A8E783
:103D3000FDF77DFD8D2020700020A2E710B55848CA
:103D40000068FFF73DF80446204610BD08B500BFE7
:103D500000BF6A46002152480068FEF77FFFFDF76A
:103D60004DFD50480068401C4E49086008460078E8
:103D700000F007084C4800EBC8073C681AE0E6680A
:103D8000484960690968884213D12046FFF7E8FD79
:103D900094F82400022804D101212046FFF7F3FE05
:103DA00002E0022084F82500656815B12046A1686C
:103DB000A8473446002CE2D1FDF739FDC9E700B52C
:103DC00087B0032000218022384BCDE90132CDE9B4
:103DD00003104FF6FD703A23354A00903548FFF73F
:103DE0008AF906AA34A13A20FFF7F5FA07B000BD18
:103DF000F8B54FF420713448FDF70FFC40212A48F4
:103E0000FDF70BFC002515E0681C86B205EB85006C
:103E10002D4901EBC00406EB860001EBC0076420CE
:103E20002070002084F82500E760AFF29410206233
:103E3000681C85B20F2DE7D305EB8500224901EB05
:103E4000C00464202070002084F82500E060AFF2F8
:103E5000B81020620020134908601C490880102017
:103E60001B49088018481B4908600120FEF769FEBD
:103E7000194908600020FEF764FE094908606A4697
:103E800016A115480068FDF706F96A4618A104480E
:103E90000068FDF700F9FFF792FFF8BD3D00002034
:103EA0007800002070000020E0120020E0100020C8
:103EB000DC1200204D3D000875432F4F532D49491A
:103EC00020546D7200000000600E00206E00002083
:103ED0006C0000207C0000207400002075432F4FF0
:103EE000532D494920546D724C6F636B00000000E4
:103EF00075432F4F532D494920546D725369676E96
:103F0000616C000000207749088070477047704757
:103F100070477047704770B5044610460026051F6D
:103F200028462E604FF48056051F28462E60152621
:103F3000051F28462E601426051F28462E601326CE
:103F4000051F28462E601226051F28462E601126C2
:103F5000051F28462E601026051F28462E600926BC
:103F6000051F28462E600826051F28462E600726B6
:103F7000051F28462E600626051F28462E600526AA
:103F8000051F28462E600426051F28462E6003269E
:103F9000051F28462E600226051F28462E60012692
:103FA000051F28462E600026051F28462E604FF06C
:103FB00080750560051F28462C604B4E051F28465E
:103FC0002E604FF01236051F28462E604FF0033644
:103FD000051F28462E604FF00236051F28462E602A
:103FE0007610051F28462E60051F284629603126B9
:103FF000051F28462E603026051F28462E602926DC
:10400000051F28462E602826051F28462E602726D5
:10401000051F28462E602626051F28462E602526C9
:10402000051F28462E602426051F28462E602326BD
:10403000051F28462E602226051F28462E602126B1
:10404000051F28462E602026051F28462E601926AB
:10405000051F28462E601826051F28462E601726A5
:10406000051F28462E601626051F28462E604FF095
:104070001136051F28462E604FF01036051F2846C2
:104080002E604FF00936051F28462E604FF0083687
:10409000051F28462E604FF00736051F28462E6064
:1040A0004FF00636051F28462E604FF00536051FD7
:1040B00028462E604FF00436051F28462E6070BD3E
:1040C0007047704710B507480088401C05490880B4
:1040D00008460088642803D300200880FFF72EFEDE
:1040E00010BD704784000020BB360008EFF310803D
:1040F00072B6704780F310887047264C4FF6FF75F4
:1041000025604FF0000484F30988234C4FF001052B
:104110002570224C4FF08055256062B6FEE730B422
:104120001E4C4FF08055256030BC704730B41B4C9E
:104130004FF08055256030BC704700BF72B6EFF37A
:10414000098050B11EF0100F08BF20ED108A2038F2
:1041500080E8F00F12490968086000B511488047EF
:104160005DF804EB104811490A7802700C481049B8
:104170000A680260106890E8F00F20301EF0100FFF
:1041800008BFB0EC108A80F309884EF0040E62B6C6
:10419000704700BF22ED00E04A00002004ED00E07F
:1041A00050000020C14000083F00002040000020D7
:1041B00058000020704770477047754600F028F897
:1041C000AE4605006946534620F00700854618B004
:1041D00020B5FCF72BFABDE820404FF000064FF069
:1041E00000074FF000084FF0000B21F00701AC462C
:1041F000ACE8C009ACE8C009ACE8C009ACE8C0094B
:104200008D4670470446AFF300802046FCF705F862
:10421000004870472013002001491820ABBEFEE77C
:104220002600020070474FF04070E1EE100A704720
:104230000000010002000100030001000200010073
:10424000040001000200010003000100020001005F
:10425000050001000200010003000100020001004E
:10426000040001000200010003000100020001003F
:10427000060001000200010003000100020001002D
:10428000040001000200010003000100020001001F
:10429000050001000200010003000100020001000E
:1042A00004000100020001000300010002000100FF
:1042B00007000100020001000300010002000100EC
:1042C00004000100020001000300010002000100DF
:1042D00005000100020001000300010002000100CE
:1042E00004000100020001000300010002000100BF
:1042F00006000100020001000300010002000100AD
:10430000040001000200010003000100020001009E
:10431000050001000200010003000100020001008D
:10432000040001000200010003000100020001007E
:10433000504300080000002088000000C40100086D
:10434000D843000888000020F8180000E0010008A9
:10435000007A030A000000000000000001020304CC
:10436000060708090000000001020304010203041B
:10437000060708090000000000000000000000001F
:10438000000000000000000000000000000000002D
:10439000000000000000000000000000000000001D
:1043A000000000000000000000000000000000000D
:1043B00000000000000000000000000000000000FD
:1043C00000000000000000000000000000000000ED
:0843D0000000000000000000E5
:040000050800018965
:00000001FF
